A208262016000184DM02  SEMINARIO S PEDRO      COSERN              2014091900506805SEMINARIO S PEDRO                                                    
F0000000000000000000003033    000359685017  20140926000000000000100                                                                    201409192014095
F0000000000000000000016207    000713107018  20140918000000000000500                                                                    201409052014096
F0000000000000000000010304    000191207017  20140918000000000000200                                                                    201409092014096
F0000000000000000000003063    000359769016  20141001000000000000300                                                                    201409192014095
F0000000000000000000012823    000302065012  20140926000000000000100                                                                    201409192014095
F0000000000000000000012839    000302067015  20140926000000000000100                                                                    201409192014095
F0000000000000000000012906    000301789017  20140918000000000000300                                                                    201409082014096
F0000000000000000000015433    000358678017  20140918000000000000100                                                                    201409092014096
F0000000000000000000015004    000191070011  20140918000000000000200                                                                    201409092014096
F0000000000000000000015728    000191058011  20140918000000000000200                                                                    201409092014096
F0000000000000000000013153    000710011010  20141001000000000000100                                                                    201409192014095
F0000000000000000000015018    000191053010  20140918000000000000100                                                                    201409092014096
F0000000000000000000013284    000578745017  20141006000000000000100                                                                    201409192014095
F0000000000000000000012857    000302071012  20140926000000000000100                                                                    201409192014095
F0000000000000000000013143    000715187019  20141001000000000000100                                                                    201409192014095
F0000000000000000000016070    000853168564  20140930000000000000500                                                                    201409192014095
F0000000000000000000008564    000715902010  20140917000000000000100                                                                    201409082014096
F0000000000000000000012828    000302116016  20140926000000000000100                                                                    201409192014095
F0000000000000000000013032    000302286019  20140918000000000000100                                                                    201409112014096
F0000000000000000000013445    000716798011  20140926000000000000100                                                                    201409192014095
F0000000000000000000011056    000717226011  20141001000000000000100                                                                    201409192014095
F0000000000000000000015681    000853262935  20140926000000000000500                                                                    201409192014095
F0000000000000000000015557    000302491011  20140918000000000000200                                                                    201409162014096
F0000000000000000000001237    000194497016  20140919000000000001000                                                                    201409152014091
F0000000000000000000004611    000720632012  20141001000000000000100                                                                    201409192014095
F0000000000000000000011385    000302609012  20140918000000000000100                                                                    201409152014096
F0000000000000000000006025    000722221010  20141001000000000000100                                                                    201409192014095
F0000000000000000000011018    000850424721  20141001000000000000100                                                                    201409192014095
F0000000000000000000012789    000320423015  20141001000000000000500                                                                    201409192014095
F0000000000000000000000272    000320452015  20141001000000000000200                                                                    201409192014095
F0000000000000000000006460    000069417019  20140918000000000002000                                                                    201409162014096
F0000000000000000000000271    000850351252  20141001000000000000200                                                                    201409192014095
F0000000000000000000010992    000571389010  20141015000000000000200                                                                    201409192014095
F0000000000000000000010993    000571392011  20141001000000000000100                                                                    201409192014095
F0000000000000000000011432    000320529018  20140919000000000000200                                                                    201409122014096
F0000000000000000000013169    000229464019  20141001000000000000100                                                                    201409192014095
F0000000000000000000013171    000229539019  20141001000000000000100                                                                    201409192014095
F0000000000000000000013167    000229543016  20141001000000000000100                                                                    201409192014095
F0000000000000000000011448    000320627010  20140919000000000000300                                                                    201409152014096
F0000000000000000000013164    000229681010  20141001000000000000100                                                                    201409192014095
F0000000000000000000015606    000229905015  20141001000000000000200                                                                    201409192014095
F0000000000000000000015608    000229906011  20141001000000000000200                                                                    201409192014095
F0000000000000000000013154    000229922017  20141001000000000000100                                                                    201409192014095
F0000000000000000000013151    000229936018  20141001000000000000100                                                                    201409192014095
F0000000000000000000013146    000229973010  20141006000000000000200                                                                    201409192014095
F0000000000000000000013147    000229976010  20141001000000000000100                                                                    201409192014095
F0000000000000000000000420    000229981013  20141001000000000000500                                                                    201409192014095
F0000000000000000000015267    000230026017  20141001000000000000500                                                                    201409192014095
F0000000000000000000013131    000230087016  20141001000000000000100                                                                    201409192014095
F0000000000000000000013145    000230171017  20141001000000000000100                                                                    201409192014095
F0000000000000000000013113    000230172013  20141001000000000000100                                                                    201409192014095
F0000000000000000000013144    000230180016  20141001000000000000100                                                                    201409192014095
F0000000000000000000013149    000230279012  20141001000000000000100                                                                    201409192014095
F0000000000000000000011472    000320786010  20140918000000000000300                                                                    201409172014096
F0000000000000000000011474    000320911010  20140926000000000000200                                                                    201409192014095
F0000000000000000000006191    000353776010  20141001000000000000100                                                                    201409192014095
F0000000000000000000015686    000852255200  20141002000000000000200                                                                    201409192014095
F0000000000000000000006044    000353805010  20141001000000000000100                                                                    201409192014095
F0000000000000000000006009    000353841017  20141001000000000000100                                                                    201409192014095
F0000000000000000000006010    000353853015  20141001000000000000100                                                                    201409192014095
F0000000000000000000006257    000353931016  20141001000000000000100                                                                    201409192014095
F0000000000000000000006130    000353960016  20141001000000000000100                                                                    201409192014095
F0000000000000000000006207    000353985019  20141001000000000000100                                                                    201409192014095
F0000000000000000000014585    000296261017  20140918000000000000200                                                                    201409162014096
F0000000000000000000006163    000354039010  20141010000000000000100                                                                    201409192014095
F0000000000000000000006098    000354186012  20141001000000000000100                                                                    201409192014095
F0000000000000000000006104    000354204010  20141001000000000000100                                                                    201409192014095
F0000000000000000000003719    000852275510  20140918000000000000100                                                                    201409052014096
F0000000000000000000006111    000354335018  20141010000000000000100                                                                    201409192014095
F0000000000000000000006106    000354358018  20141001000000000000100                                                                    201409192014095
F0000000000000000000006328    000354369010  20141015000000000000100                                                                    201409192014095
F0000000000000000000006306    000354370018  20141001000000000000100                                                                    201409192014095
F0000000000000000000006293    000354371014  20141001000000000000100                                                                    201409192014095
F0000000000000000000006100    000354372010  20141010000000000000100                                                                    201409192014095
F0000000000000000000006103    000354390019  20141001000000000000100                                                                    201409192014095
F0000000000000000000006057    000354439018  20141001000000000000100                                                                    201409192014095
F0000000000000000000004642    000687052013  20141006000000000000100                                                                    201409192014095
F0000000000000000000014275    000354552019  20141001000000000000100                                                                    201409192014095
F0000000000000000000006011    000354553015  20141001000000000000200                                                                    201409192014095
F0000000000000000000014276    000354559013  20141001000000000000100                                                                    201409192014095
F0000000000000000000011107    000687257014  20141001000000000000100                                                                    201409192014095
F0000000000000000000006012    000354560011  20141001000000000000100                                                                    201409192014095
F0000000000000000000005953    000353761013  20141001000000000001000                                                                    201409192014095
F0000000000000000000003743    000853418129  20140926000000000000100                                                                    201409192014095
F0000000000000000000011006    000722534018  20141001000000000000100                                                                    201409192014095
F0000000000000000000009624    000723382017  20141001000000000000100                                                                    201409192014095
F0000000000000000000011007    000724223010  20141010000000000000200                                                                    201409192014095
F0000000000000000000011008    000724228011  20141001000000000000100                                                                    201409192014095
F0000000000000000000010468    000196219013  20140918000000000000100                                                                    201409092014096
F0000000000000000000010196    000731620016  20141001000000000000100                                                                    201409192014095
F0000000000000000000011492    000732274014  20140919000000000000100                                                                    201409172014096
F0000000000000000000000265    000853732826  20141001000000000000200                                                                    201409192014095
F0000000000000000000010360    000853768839  20140919000000000000100                                                                    201409162014096
F0000000000000000000014274    000735141015  20140918000000000000200                                                                    201409082014096
F0000000000000000000015690    000735276018  20140918000000000000200                                                                    201409182014096
F0000000000000000000013885    000670385019  20140930000000000000500                                                                    201409192014095
F0000000000000000000004801    000851940081  20141001000000000000200                                                                    201409192014095
F0000000000000000000003075    000351856017  20141001000000000000100                                                                    201409192014095
F0000000000000000000015190    000852025549  20140918000000000000200                                                                    201409182014096
F0000000000000000000006301    000675950016  20141001000000000000100                                                                    201409192014095
F0000000000000000000008060    000676082018  20140918000000000000100                                                                    201409122014096
F0000000000000000000015045    000852052970  20141001000000000000100                                                                    201409192014095
F0000000000000000000011076    000676327010  20141001000000000000200                                                                    201409192014095
F0000000000000000000004320    000676819010  20140918000000000000500                                                                    201409082014096
F0000000000000000000015237    000852104341  20140917000000000000200                                                                    201409082014096
F0000000000000000000016095    000678089028  20140926000000000000200                                                                    201409192014095
F0000000000000000000015049    000852148527  20141001000000000000100                                                                    201409192014095
F0000000000000000000016140    000294539018  20140918000000000000500                                                                    201409012014096
F0000000000000000000004213    000683419010  20140919000000000000100                                                                    201409092014096
F0000000000000000000006067    000353744011  20141001000000000000100                                                                    201409192014095
F0000000000000000000000267    000320418011  20141001000000000000200                                                                    201409192014095
F0000000000000000000006598    000121834014  20140930000000000000200                                                                    201409192014095
F0000000000000000000008152    000121839016  20140930000000000000100                                                                    201409192014095
F0000000000000000000006623    000121857014  20140930000000000000300                                                                    201409192014095
F0000000000000000000006621    000121871017  20140930000000000000200                                                                    201409192014095
F0000000000000000000008149    000121872013  20140930000000000000100                                                                    201409192014095
F0000000000000000000011714    000121930013  20140930000000000000100                                                                    201409192014095
F0000000000000000000007115    000045066010  20140918000000000000200                                                                    201409122014096
F0000000000000000000014101    000122356019  20140930000000000000100                                                                    201409192014095
F0000000000000000000008189    000122457010  20140930000000000000300                                                                    201409192014095
F0000000000000000000011535    000122568016  20140930000000000000100                                                                    201409192014095
F0000000000000000000016323    000122653013  20140930000000000000500                                                                    201409192014095
F0000000000000000000015826    000856218520  20140926000000000000200                                                                    201409192014095
F0000000000000000000013708    000045705013  20140917000000000000200                                                                    201409082014096
F0000000000000000000006611    000122692019  20140930000000000000300                                                                    201409192014095
F0000000000000000000002376    000776622010  20140918000000000000200                                                                    201409112014096
F0000000000000000000015830    000856257304  20140926000000000000500                                                                    201409192014095
F0000000000000000000013881    000122877019  20140930000000000000500                                                                    201409192014095
F0000000000000000000016319    000123065018  20140930000000000000500                                                                    201409192014095
F0000000000000000000016322    000123375017  20140930000000000001000                                                                    201409192014095
F0000000000000000000008934    000045895017  20140917000000000000200                                                                    201409082014096
F0000000000000000000008163    000123575016  20140930000000000000100                                                                    201409192014095
F0000000000000000000016099    000123706013  20140930000000000001000                                                                    201409192014095
F0000000000000000000014140    000123761014  20140930000000000000200                                                                    201409192014095
F0000000000000000000014414    000123901010  20140930000000000000100                                                                    201409192014095
F0000000000000000000014138    000123904010  20140930000000000000200                                                                    201409192014095
F0000000000000000000008161    000123976010  20140930000000000000100                                                                    201409192014095
F0000000000000000000009019    000124154014  20141010000000000000200                                                                    201409192014095
F0000000000000000000004149    000203503016  20140918000000000000500                                                                    201409082014096
F0000000000000000000014112    000121006014  20141001000000000000100                                                                    201409192014095
F0000000000000000000014092    000121009013  20140930000000000000100                                                                    201409192014095
F0000000000000000000007071    000121031019  20140930000000000000500                                                                    201409192014095
F0000000000000000000008133    000121075016  20140930000000000000100                                                                    201409192014095
F0000000000000000000008695    000121103010  20140930000000000000200                                                                    201409192014095
F0000000000000000000008197    000121198010  20140930000000000000200                                                                    201409192014095
F0000000000000000000008181    000121295016  20141010000000000000500                                                                    201409192014095
F0000000000000000000016364    000044002019  20140917000000000001000                                                                    201409082014096
F0000000000000000000013793    000771865011  20140926000000000000100                                                                    201409192014095
F0000000000000000000015969    000855696924  20140926000000000000500                                                                    201409192014095
F0000000000000000000008177    000121350017  20140930000000000000500                                                                    201409192014095
F0000000000000000000008211    000121351013  20140930000000000000200                                                                    201409192014095
F0000000000000000000008213    000121352010  20140930000000000000200                                                                    201409192014095
F0000000000000000000008184    000121354012  20140930000000000000100                                                                    201409192014095
F0000000000000000000008185    000121355019  20140930000000000000300                                                                    201409192014095
F0000000000000000000006606    000121368013  20140930000000000000500                                                                    201409192014095
F0000000000000000000008136    000121393018  20141015000000000000100                                                                    201409192014095
F0000000000000000000014139    000121435012  20140930000000000000200                                                                    201409192014095
F0000000000000000000008595    000044322013  20140917000000000003000                                                                    201409082014096
F0000000000000000000015483    000121517019  20140930000000000000500                                                                    201409192014095
F0000000000000000000014417    000121593017  20141008000000000000200                                                                    201409192014095
F0000000000000000000008948    000121594013  20140930000000000000200                                                                    201409192014095
F0000000000000000000008377    000044379015  20140917000000000000500                                                                    201409082014096
F0000000000000000000008229    000121654016  20140930000000000000100                                                                    201409192014095
F0000000000000000000009149    000044422018  20140917000000000000200                                                                    201409082014096
F0000000000000000000011539    000121679019  20141010000000000000100                                                                    201409192014095
F0000000000000000000008154    000121753014  20141010000000000000100                                                                    201409192014095
F0000000000000000000011488    000558167017  20140918000000000000100                                                                    201409162014096
F0000000000000000000010786    000317923015  20141006000000000000200                                                                    201409192014095
F0000000000000000000004485    000850231303  20140918000000000000100                                                                    201409082014096
F0000000000000000000010709    000317974019  20140926000000000000500                                                                    201409192014095
F0000000000000000000010729    000318016011  20141006000000000000200                                                                    201409192014095
F0000000000000000000013155    000558353015  20141001000000000000100                                                                    201409192014095
F0000000000000000000013157    000558384018  20141001000000000000100                                                                    201409192014095
F0000000000000000000010852    000318134014  20140926000000000000100                                                                    201409192014095
F0000000000000000000013365    000558894016  20141001000000000000100                                                                    201409192014095
F0000000000000000000008446    000145121019  20140918000000000000100                                                                    201409162014096
F0000000000000000000006934    000559141011  20140930000000000000500                                                                    201409192014095
F0000000000000000000006800    000561594015  20140918000000000000500                                                                    201409122014096
F0000000000000000000000780    000850272271  20141001000000000000200                                                                    201409192014095
F0000000000000000000012801    000320188016  20141001000000000000100                                                                    201409192014095
F0000000000000000000012795    000320216010  20141001000000000000100                                                                    201409192014095
F0000000000000000000014133    000850326878  20140930000000000000200                                                                    201409192014095
F0000000000000000000012791    000320225019  20141001000000000000100                                                                    201409192014095
F0000000000000000000012790    000320226015  20141001000000000000300                                                                    201409192014095
F0000000000000000000012792    000320227011  20141001000000000000200                                                                    201409192014095
F0000000000000000000012794    000320267013  20141001000000000000100                                                                    201409192014095
F0000000000000000000012803    000320300010  20141001000000000000200                                                                    201409192014095
F0000000000000000000012796    000320308011  20141001000000000000200                                                                    201409192014095
F0000000000000000000014879    000320315018  20141001000000000000200                                                                    201409192014095
F0000000000000000000014942    000320328012  20141001000000000000100                                                                    201409192014095
F0000000000000000000000266    000320363012  20141001000000000000200                                                                    201409192014095
F0000000000000000000000266    000320363012  20140919000000000000200                                                                    201409192014096
F0000000000000000000014882    000320402018  20141001000000000000200                                                                    201409192014095
F0000000000000000000011779    000064584014  20140917000000000000500                                                                    201409082014096
F0000000000000000000011689    000124583012  20140930000000000000200                                                                    201409192014095
F0000000000000000000013538    000046043014  20140917000000000000500                                                                    201409082014096
F0000000000000000000008700    000124648017  20140930000000000000100                                                                    201409192014095
F0000000000000000000008989    000046075013  20140918000000000000100                                                                    201409082014096
F0000000000000000000011010    000780028017  20141001000000000000100                                                                    201409192014095
F0000000000000000000013163    000780371013  20141001000000000000100                                                                    201409192014095
F0000000000000000000016628    000856874907  20140918000000000001000                                                                    201409042014096
F0000000000000000000000411    000047726018  20140918000000000000200                                                                    201409092014096
F0000000000000000000008707    000048106013  20140918000000000000300                                                                    201409092014096
F0000000000000000000015633    000048196012  20140918000000000002000                                                                    201409092014096
F0000000000000000000015658    007000218272  20140918000000000005000                                                                    201409092014096
F0000000000000000000013938    000316719015  20141001000000000000100                                                                    201409192014095
F0000000000000000000007222    000063459011  20140917000000000000500                                                                    201409082014096
F0000000000000000000013965    000316731015  20141001000000000000100                                                                    201409192014095
F0000000000000000000004383    000553714010  20140919000000000000100                                                                    201409052014096
F0000000000000000000013955    000316752012  20141001000000000000100                                                                    201409192014095
F0000000000000000000013961    000316758010  20141001000000000000100                                                                    201409192014095
F0000000000000000000000119    000553958016  20140919000000000000300                                                                    201409182014096
F0000000000000000000013960    000316759017  20141001000000000000100                                                                    201409192014095
F0000000000000000000014116    000554135013  20141006000000000000100                                                                    201409192014095
F0000000000000000000010706    000317541015  20140926000000000000500                                                                    201409192014095
F0000000000000000000010726    000317664010  20140926000000000000500                                                                    201409192014095
F0000000000000000000001891    000850209502  20140926000000000000100                                                                    201409192014095
F0000000000000000000010774    000317687010  20141002000000000000200                                                                    201409192014095
F0000000000000000000010807    000317725019  20140926000000000000300                                                                    201409192014095
F0000000000000000000010814    000317744013  20141110000000000000500                                                                    201409192014095
F0000000000000000000010779    000317827016  20141006000000000000500                                                                    201409192014095
F0000000000000000000010966    000234586017  20141001000000000000100                                                                    201409192014095
F0000000000000000000011066    000234654012  20141001000000000000100                                                                    201409192014095
F0000000000000000000010970    000234656015  20141001000000000000100                                                                    201409192014095
F0000000000000000000011030    000234672010  20141001000000000000100                                                                    201409192014095
F0000000000000000000015043    000234678019  20141001000000000000100                                                                    201409192014095
F0000000000000000000007213    000072774019  20140930000000000000300                                                                    201409192014095
F0000000000000000000015040    000234697013  20141001000000000000500                                                                    201409192014095
F0000000000000000000015047    000234706012  20141001000000000000100                                                                    201409192014095
F0000000000000000000015053    000234709011  20141001000000000000100                                                                    201409192014095
F0000000000000000000015054    000234710010  20141001000000000000100                                                                    201409192014095
F0000000000000000000009597    000587284014  20141001000000000000100                                                                    201409192014095
F0000000000000000000011034    000234718010  20141001000000000000100                                                                    201409192014095
F0000000000000000000011028    000234730010  20141001000000000000100                                                                    201409192014095
F0000000000000000000011031    000234731017  20141001000000000000200                                                                    201409192014095
F0000000000000000000011032    000234736019  20141001000000000000100                                                                    201409192014095
F0000000000000000000010994    000587596016  20141001000000000000100                                                                    201409192014095
F0000000000000000000015044    000234738011  20141001000000000000100                                                                    201409192014095
F0000000000000000000010995    000587597012  20141001000000000000100                                                                    201409192014095
F0000000000000000000014264    000234765019  20141001000000000000100                                                                    201409192014095
F0000000000000000000004596    000588469018  20141001000000000000100                                                                    201409192014095
F0000000000000000000011119    000234795015  20141001000000000000100                                                                    201409192014095
F0000000000000000000011120    000234836013  20141001000000000000100                                                                    201409192014095
F0000000000000000000011118    000234842013  20141001000000000000200                                                                    201409192014095
F0000000000000000000011114    000234845012  20141001000000000000100                                                                    201409192014095
F0000000000000000000010973    000234846019  20141001000000000000100                                                                    201409192014095
F0000000000000000000013140    000589017013  20141001000000000000100                                                                    201409192014095
F0000000000000000000011099    000234847015  20141001000000000000100                                                                    201409192014095
F0000000000000000000011122    000234576011  20141001000000000000200                                                                    201409192014095
F0000000000000000000013218    000154015019  20141013000000000000100                                                                    201409192014095
F0000000000000000000013235    000154037012  20140926000000000000100                                                                    201409192014095
F0000000000000000000013237    000154081011  20140926000000000000100                                                                    201409192014095
F0000000000000000000013295    000154109013  20140926000000000000200                                                                    201409192014095
F0000000000000000000013209    000154160019  20140926000000000000100                                                                    201409192014095
F0000000000000000000013191    000154166017  20140926000000000000100                                                                    201409192014095
F0000000000000000000013252    000154258019  20140926000000000000100                                                                    201409192014095
F0000000000000000000013264    000154330011  20140926000000000000100                                                                    201409192014095
F0000000000000000000012010    000154735011  20140918000000000000200                                                                    201409172014096
F0000000000000000000010946    000234181017  20141001000000000000200                                                                    201409192014095
F0000000000000000000011110    000234275011  20141001000000000000100                                                                    201409192014095
F0000000000000000000011044    000234296019  20141110000000000000100                                                                    201409192014095
F0000000000000000000010948    000234297015  20141001000000000000100                                                                    201409192014095
F0000000000000000000011045    000234304011  20141001000000000000100                                                                    201409192014095
F0000000000000000000011069    000234318012  20141001000000000000200                                                                    201409192014095
F0000000000000000000011043    000234321013  20141001000000000000100                                                                    201409192014095
F0000000000000000000013306    000156170011  20140926000000000000200                                                                    201409192014095
F0000000000000000000010950    000234340018  20141001000000000000100                                                                    201409192014095
F0000000000000000000010951    000234362011  20141001000000000000200                                                                    201409192014095
F0000000000000000000011979    000586093010  20140930000000000000200                                                                    201409192014095
F0000000000000000000010953    000234392018  20141010000000000000100                                                                    201409192014095
F0000000000000000000011060    000234511017  20141008000000000000100                                                                    201409192014095
F0000000000000000000010961    000234516019  20141001000000000000100                                                                    201409192014095
F0000000000000000000014261    000234557017  20141001000000000000200                                                                    201409192014095
F0000000000000000000012009    000156922013  20140918000000000000200                                                                    201409172014096
F0000000000000000000010963    000234566016  20141001000000000000100                                                                    201409192014095
F0000000000000000000010965    000234575015  20141001000000000000100                                                                    201409192014095
F0000000000000000000011323    000368834017  20140918000000000000200                                                                    201409162014096
F0000000000000000000010880    000738859014  20141013000000000000500                                                                    201409192014095
F0000000000000000000000388    000738935012  20140930000000000000200                                                                    201409192014095
F0000000000000000000011709    000739163013  20141010000000000000100                                                                    201409192014095
F0000000000000000000014966    000739605016  20141001000000000000100                                                                    201409192014095
F0000000000000000000001313    000853961680  20140926000000000000100                                                                    201409192014095
F0000000000000000000007164    000105113013  20140918000000000003000                                                                    201409102014096
F0000000000000000000000268    000854127977  20141001000000000000200                                                                    201409192014095
F0000000000000000000011794    000105631014  20141013000000000000100                                                                    201409192014095
F0000000000000000000016901    000105641010  20140930000000000001500                                                                    201409192014095
F0000000000000000000011721    000105728018  20140930000000000000100                                                                    201409192014095
F0000000000000000000006555    000105873018  20140930000000000001500                                                                    201409192014095
F0000000000000000000003439    000370690014  20140926000000000001000                                                                    201409192014095
F0000000000000000000015186    000371213015  20140918000000000000100                                                                    201409162014096
F0000000000000000000009635    000745366015  20141001000000000000100                                                                    201409192014095
F0000000000000000000016376    000854226878  20140930000000000000500                                                                    201409192014095
F0000000000000000000002627    000748709010  20140926000000000000100                                                                    201409192014095
F0000000000000000000014262    000854426613  20141001000000000000100                                                                    201409192014095
F0000000000000000000015046    000761618016  20141001000000000000100                                                                    201409192014095
F0000000000000000000014263    000762710013  20141001000000000000100                                                                    201409192014095
F0000000000000000000005281    000854650238  20141001000000000000200                                                                    201409192014095
F0000000000000000000014710    000854710710  20141001000000000000100                                                                    201409192014095
F0000000000000000000015234    000854730185  20140918000000000000300                                                                    201409122014096
F0000000000000000000015152    000855080443  20140926000000000000300                                                                    201409192014095
F0000000000000000000016741    007006797347  20140919000000000000500                                                                    201409032014096
F0000000000000000000015330    000248370017  20140919000000000000200                                                                    201409012014096
F                             000245497016  20140918000000000000200                                                                    200908032009086
F0000000000000000000016894    000737947017  20140918000000000002000                                                                    201409122014096
F0000000000000000000010974    000234855018  20141001000000000000100                                                                    201409192014095
F0000000000000000000010976    000234863010  20141001000000000000100                                                                    201409192014095
F0000000000000000000010978    000234971018  20141001000000000000100                                                                    201409192014095
F0000000000000000000010979    000235009013  20141001000000000000100                                                                    201409192014095
F0000000000000000000010980    000235074010  20141001000000000000100                                                                    201409192014095
F0000000000000000000016059    000324250018  20140926000000000001000                                                                    201409192014095
F0000000000000000000015318    000589879015  20140918000000000000200                                                                    201409052014096
F0000000000000000000002776    000324301011  20140926000000000000200                                                                    201409192014095
F0000000000000000000002892    000324312013  20140926000000000000100                                                                    201409192014095
F0000000000000000000010996    000590867012  20141001000000000000100                                                                    201409192014095
F0000000000000000000014082    000850585105  20141006000000000000100                                                                    201409192014095
F0000000000000000000008203    000592231018  20140930000000000000500                                                                    201409192014095
F0000000000000000000003100    000325023015  20140918000000000000200                                                                    201409082014096
F0000000000000000000011116    000593959015  20141001000000000000100                                                                    201409192014095
F0000000000000000000011079    000594035011  20141001000000000000100                                                                    201409192014095
F0000000000000000000003238    000594453018  20140918000000000000300                                                                    201409092014096
F0000000000000000000014736    000850618780  20140918000000000000500                                                                    201409112014096
F0000000000000000000015583    000850631123  20140930000000000000200                                                                    201409192014095
F0000000000000000000002368    000850634076  20140918000000000000200                                                                    201409052014096
F0000000000000000000004553    000850634963  20141006000000000000100                                                                    201409192014095
F0000000000000000000016235    000596129013  20140926000000000001000                                                                    201409192014095
F0000000000000000000011020    000850637822  20141001000000000000100                                                                    201409192014095
F0000000000000000000015214    000850646520  20140918000000000000200                                                                    201409172014096
F0000000000000000000015184    000850675104  20140926000000000000300                                                                    201409192014095
F0000000000000000000006917    000850704945  20140930000000000000200                                                                    201409192014095
F0000000000000000000008783    000850710988  20141001000000000000100                                                                    201409192014095
F0000000000000000000014776    000853893200  20140926000000000000100                                                                    201409192014095
F0000000000000000000013203    000154007016  20140926000000000000100                                                                    201409192014095
F0000000000000000000003653    000382248015  20140926000000000000100                                                                    201409192014095
F0000000000000000000003659    000382250010  20140926000000000000100                                                                    201409192014095
F0000000000000000000003560    000382258010  20140926000000000000200                                                                    201409192014095
F0000000000000000000003650    000382263014  20141006000000000000100                                                                    201409192014095
F0000000000000000000000753    000799216019  20141001000000000000200                                                                    201409192014095
F0000000000000000000003699    000382374010  20140926000000000000500                                                                    201409192014095
F0000000000000000000000764    000799225018  20141001000000000000200                                                                    201409192014095
F0000000000000000000000786    000799233010  20141001000000000000200                                                                    201409192014095
F0000000000000000000000770    000799241013  20141001000000000000200                                                                    201409192014095
F0000000000000000000000790    000799249014  20141001000000000000200                                                                    201409192014095
F0000000000000000000000649    000799262010  20141001000000000000200                                                                    201409192014095
F0000000000000000000014078    000799308010  20140930000000000000100                                                                    201409192014095
F0000000000000000000000773    000799432013  20141001000000000000200                                                                    201409192014095
F0000000000000000000000741    000799433010  20141001000000000000200                                                                    201409192014095
F0000000000000000000000793    000799438011  20141001000000000000200                                                                    201409192014095
F0000000000000000000000814    000799443015  20141001000000000000200                                                                    201409192014095
F0000000000000000000000716    000799448017  20141001000000000000200                                                                    201409192014095
F0000000000000000000004575    000214823012  20141001000000000000200                                                                    201409192014095
F0000000000000000000000743    000799456010  20141001000000000000200                                                                    201409192014095
F0000000000000000000015060    000214861011  20141001000000000000200                                                                    201409192014095
F0000000000000000000001306    000313340015  20141010000000000000100                                                                    201409192014095
F0000000000000000000001295    000313345017  20140926000000000000200                                                                    201409192014095
F0000000000000000000001194    000802066015  20140919000000000000100                                                                    201409152014096
F0000000000000000000002530    000215523012  20140918000000000000200                                                                    201409122014096
F0000000000000000000000297    000314785010  20140919000000000000200                                                                    201409122014096
F0000000000000000000011013    000804896015  20141001000000000000100                                                                    201409192014095
F0000000000000000000016710    007002012922  20140918000000000000500                                                                    201409162014096
F0000000000000000000016169    007001060753  20140926000000000000200                                                                    201409192014095
F0000000000000000000006013    000354572010  20141001000000000000200                                                                    201409192014095
F0000000000000000000006161    000354579014  20141001000000000000100                                                                    201409192014095
F0000000000000000000006166    000354589010  20141001000000000000100                                                                    201409192014095
F0000000000000000000006040    000354657015  20141001000000000000100                                                                    201409192014095
F0000000000000000000012802    000852348020  20141001000000000000100                                                                    201409192014095
F0000000000000000000010849    000852377550  20140926000000000000100                                                                    201409192014095
F0000000000000000000006794    000691998010  20140918000000000000200                                                                    201409122014096
F0000000000000000000015888    000852447583  20140918000000000000200                                                                    201409152014096
F0000000000000000000001121    000852459891  20141008000000000000100                                                                    201409192014095
F0000000000000000000015041    000852471204  20141001000000000000300                                                                    201409192014095
F0000000000000000000012705    000852523751  20140918000000000000200                                                                    201409112014096
F0000000000000000000002973    000852546450  20140926000000000000100                                                                    201409192014095
F0000000000000000000015921    000852577720  20140926000000000000200                                                                    201409192014095
F0000000000000000000015308    000852620099  20140926000000000000100                                                                    201409192014095
F0000000000000000000016496    007000240553  20141010000000000000500                                                                    201409192014095
F0000000000000000000016589    007000292600  20141001000000000000500                                                                    201409192014095
F0000000000000000000006625    000049331010  20140918000000000000200                                                                    201409092014096
F0000000000000000000008089    000049376014  20140918000000000000100                                                                    201409092014096
F0000000000000000000006181    000792464017  20141001000000000000100                                                                    201409192014095
F0000000000000000000003246    000379750010  20141001000000000000200                                                                    201409192014095
F0000000000000000000008097    000049805012  20140918000000000000100                                                                    201409092014096
F0000000000000000000004347    000381473015  20140918000000000000100                                                                    201409172014096
F0000000000000000000004468    000212165018  20141001000000000000100                                                                    201409192014095
F0000000000000000000008107    000050631010  20140918000000000000100                                                                    201409092014096
F0000000000000000000004465    000212201014  20141001000000000000200                                                                    201409192014095
F0000000000000000000004466    000212859010  20141001000000000000300                                                                    201409192014095
F0000000000000000000016572    007000794397  20140918000000000001000                                                                    201409092014096
F0000000000000000000006596    000851123300  20140930000000000000200                                                                    201409192014095
F0000000000000000000002594    000626001017  20140926000000000000100                                                                    201409192014095
F0000000000000000000016253    000851161562  20140917000000000000500                                                                    201409082014096
F0000000000000000000010175    000239835015  20140918000000000000100                                                                    201409152014096
F0000000000000000000003690    000339555010  20140918000000000000300                                                                    201409162014096
F0000000000000000000003692    000339599017  20140918000000000000100                                                                    201409162014096
F0000000000000000000014707    000851242732  20140926000000000000100                                                                    201409192014095
F0000000000000000000011111    000851272194  20141014000000000000200                                                                    201409192014095
F0000000000000000000008994    000851274014  20140917000000000000200                                                                    201409082014096
F0000000000000000000014855    000640864010  20141001000000000000100                                                                    201409192014095
F0000000000000000000001652    000643259010  20140926000000000000100                                                                    201409192014095
F0000000000000000000013710    000851411356  20140917000000000000500                                                                    201409082014096
F0000000000000000000004826    000851421319  20141001000000000000200                                                                    201409192014095
F0000000000000000000011068    000645835018  20141001000000000000200                                                                    201409192014095
F0000000000000000000011001    000645837010  20141001000000000000100                                                                    201409192014095
F0000000000000000000010237    000241687015  20141001000000000000100                                                                    201409192014095
F0000000000000000000010256    000241822010  20141001000000000000300                                                                    201409192014095
F0000000000000000000015828    000851488197  20140926000000000000500                                                                    201409192014095
F0000000000000000000005703    000851522832  20140918000000000000100                                                                    201409112014096
F0000000000000000000005702    000851523200  20140918000000000000100                                                                    201409112014096
F0000000000000000000000355    000245252013  20140918000000000000200                                                                    201409112014096
F0000000000000000000002476    000173007019  20140918000000000000100                                                                    201409022014096
F0000000000000000000016676    000178570013  20140918000000000000500                                                                    201409042014096
F0000000000000000000013285    000153772010  20140926000000000000100                                                                    201409192014095
F0000000000000000000013311    000153921016  20140926000000000000500                                                                    201409192014095
F0000000000000000000013283    000153980012  20140926000000000000100                                                                    201409192014095
F0000000000000000000013217    000154000011  20140926000000000000100                                                                    201409192014095
F0000000000000000000011818    000090370014  20140918000000000000100                                                                    201409092014096
F0000000000000000000011014    000806551015  20141001000000000000100                                                                    201409192014095
F0000000000000000000016866    007002111343  20140918000000000000500                                                                    201409172014096
F0000000000000000000016046    007002122914  20141001000000000000500                                                                    201409192014095
F0000000000000000000013402    000408714010  20141002000000000000100                                                                    201409192014095
F0000000000000000000013399    000408737010  20141002000000000000100                                                                    201409192014095
F0000000000000000000013404    000408739012  20141002000000000000100                                                                    201409192014095
F0000000000000000000013397    000408744016  20141002000000000000100                                                                    201409192014095
F0000000000000000000013407    000408834015  20141002000000000000100                                                                    201409192014095
F0000000000000000000013406    000408837014  20141002000000000000200                                                                    201409192014095
F0000000000000000000015827    007002371434  20140926000000000000500                                                                    201409192014095
F0000000000000000000016266    007002455077  20141001000000000000500                                                                    201409192014095
F0000000000000000000002709    000812503014  20140926000000000000100                                                                    201409192014095
F0000000000000000000013408    000813580012  20141002000000000000100                                                                    201409192014095
F0000000000000000000016494    007002527990  20141010000000000000500                                                                    201409192014095
F0000000000000000000003953    000850026874  20140918000000000000100                                                                    201409092014096
F0000000000000000000015916    007002941842  20141001000000000000200                                                                    201409192014095
F0000000000000000000015716    007003099690  20140918000000000000500                                                                    201409112014096
F0000000000000000000016900    007003116063  20140917000000000002000                                                                    201409082014096
F0000000000000000000003999    000850070407  20140918000000000000200                                                                    201409092014096
F0000000000000000000002811    000850082669  20140918000000000000100                                                                    201409042014096
F0000000000000000000016233    007003272839  20141001000000000000500                                                                    201409192014095
F0000000000000000000015766    007003303750  20140918000000000000500                                                                    201409102014096
F0000000000000000000016240    007004358583  20140926000000000000200                                                                    201409192014095
F0000000000000000000012858    000622843013  20140926000000000000100                                                                    201409192014095
F0000000000000000000016600    000090272012  20140918000000000002000                                                                    201409092014096
F0000000000000000000004821    000625713013  20140918000000000000100                                                                    201409092014096
F0000000000000000000006842    000090291017  20140918000000000001000                                                                    201409092014096
F0000000000000000000012401    000165957016  20141020000000000000200                                                                    201409192014095
F0000000000000000000012495    000166001013  20140926000000000000100                                                                    201409192014095
F0000000000000000000013520    000086006014  20140918000000000000500                                                                    201409092014096
F0000000000000000000011105    000615798010  20141001000000000000100                                                                    201409192014095
F0000000000000000000005990    000334082016  20140917000000000001000                                                                    201409052014096
F0000000000000000000007082    000086768011  20140918000000000000500                                                                    201409092014096
F0000000000000000000006386    000087086011  20140918000000000000500                                                                    201409092014096
F0000000000000000000011558    000087583015  20140918000000000000100                                                                    201409092014096
F0000000000000000000011025    000850998604  20141001000000000000100                                                                    201409192014095
F0000000000000000000011026    000851023844  20141014000000000000100                                                                    201409192014095
F0000000000000000000006074    000335069013  20140918000000000000100                                                                    201409092014096
F0000000000000000000012842    000621100017  20140926000000000000100                                                                    201409192014095
F0000000000000000000007586    000621257013  20140918000000000000500                                                                    201409092014096
F0000000000000000000013350    000648094019  20141001000000000000100                                                                    201409192014095
F0000000000000000000016869    000648132018  20141006000000000001000                                                                    201409192014095
F0000000000000000000015051    000648256019  20141001000000000000100                                                                    201409192014095
F0000000000000000000004105    000182738018  20140918000000000000100                                                                    201409092014096
F0000000000000000000001155    000279046013  20140918000000000000500                                                                    201409112014096
F0000000000000000000001195    000279084012  20140918000000000000200                                                                    201409112014096
F0000000000000000000015056    000651241014  20141001000000000000100                                                                    201409192014095
F0000000000000000000001518    000346618019  20140918000000000000500                                                                    201409152014096
F0000000000000000000015607    000851544739  20141001000000000000100                                                                    201409192014095
F0000000000000000000008565    000851566341  20140918000000000000100                                                                    201409092014096
F0000000000000000000001536    000347152013  20140926000000000000100                                                                    201409192014095
F0000000000000000000001540    000347153010  20141006000000000000100                                                                    201409192014095
F0000000000000000000001768    000347155012  20140926000000000000100                                                                    201409192014095
F0000000000000000000001778    000347161012  20140926000000000000100                                                                    201409192014095
F0000000000000000000012332    000165879015  20140926000000000000100                                                                    201409192014095
F0000000000000000000009615    000236917010  20141001000000000000100                                                                    201409192014095
F0000000000000000000009623    000236919013  20141001000000000000100                                                                    201409192014095
F0000000000000000000011022    000850801428  20141001000000000000100                                                                    201409192014095
F0000000000000000000009487    000236928012  20141001000000000000100                                                                    201409192014095
F0000000000000000000009591    000236931013  20141001000000000000100                                                                    201409192014095
F0000000000000000000011067    000607030014  20141001000000000000100                                                                    201409192014095
F0000000000000000000009488    000236939014  20141001000000000000100                                                                    201409192014095
F0000000000000000000013882    000850825351  20140930000000000001000                                                                    201409192014095
F0000000000000000000009607    000607555010  20141001000000000000100                                                                    201409192014095
F0000000000000000000009513    000236941019  20141001000000000000100                                                                    201409192014095
F0000000000000000000009600    000236949010  20141001000000000000100                                                                    201409192014095
F0000000000000000000009618    000236952010  20141001000000000000100                                                                    201409192014095
F0000000000000000000012333    000165119010  20140926000000000000100                                                                    201409192014095
F0000000000000000000012488    000165287010  20140926000000000000100                                                                    201409192014095
F0000000000000000000009634    000236963012  20141001000000000000100                                                                    201409192014095
F0000000000000000000009527    000236972011  20141001000000000000200                                                                    201409192014095
F0000000000000000000012443    000165392019  20140930000000000000100                                                                    201409192014095
F0000000000000000000011771    000850861234  20140918000000000000100                                                                    201409122014096
F0000000000000000000012072    000165442016  20140926000000000000100                                                                    201409192014095
F0000000000000000000012800    000850877335  20141001000000000000200                                                                    201409192014095
F0000000000000000000012342    000165643011  20140926000000000000100                                                                    201409192014095
F0000000000000000000011049    000611366019  20141001000000000000100                                                                    201409192014095
F0000000000000000000012489    000165684010  20140926000000000000100                                                                    201409192014095
F0000000000000000000012490    000165686012  20140926000000000000100                                                                    201409192014095
F0000000000000000000012494    000165849019  20140926000000000000100                                                                    201409192014095
F0000000000000000000012400    000165861019  20140926000000000000200                                                                    201409192014095
F0000000000000000000008137    000613725016  20140930000000000000100                                                                    201409192014095
F0000000000000000000008658    000023571013  20140917000000000000700                                                                    201409082014096
F0000000000000000000003918    000184096013  20140919000000000000200                                                                    201409082014096
F0000000000000000000004921    000851768041  20141016000000000001500                                                                    201409192014095
F0000000000000000000015042    000851799630  20141001000000000000300                                                                    201409192014095
F0000000000000000000015052    000851799745  20141001000000000000100                                                                    201409192014095
F0000000000000000000015048    000851799834  20141001000000000000100                                                                    201409192014095
F0000000000000000000009973    000611468016  20140918000000000000100                                                                    201408272014086
F0000000000000000000003285    000850923116  20140918000000000000100                                                                    201409042014096
F0000000000000000000003842    000617952017  20140918000000000000200                                                                    201408082014086
F0000000000000000000002345    000173808011  20140918000000000000100                                                                    201409022014096
F0000000000000000000013109    000177701017  20140918000000000000200                                                                    201408122014086
F0000000000000000000004701    000631224016  20140918000000000000300                                                                    201409052014096
F0000000000000000000014090    000851214119  20140918000000000000100                                                                    201409122014096
F0000000000000000000010294    000851231749  20140918000000000000100                                                                    201408082014086
F0000000000000000000004091    000851865365  20140918000000000000200                                                                    201409092014096
F0000000000000000000002941    000851913459  20140926000000000000100                                                                    201409192014095
F0000000000000000000009451    000184996014  20140918000000000000100                                                                    201409052014096
F0000000000000000000010222    000671318013  20140918000000000000100                                                                    201408142014086
F0000000000000000000014792    000350391010  20140918000000000000200                                                                    201408042014086
F0000000000000000000006195    000293141010  20140918000000000000100                                                                    201409022014096
F0000000000000000000009499    000185045013  20140918000000000000100                                                                    201409052014096
F0000000000000000000010734    000352463019  20140918000000000000300                                                                    201409082014096
F0000000000000000000010856    000352468010  20140918000000000000100                                                                    201409082014096
F0000000000000000000002925    000852103957  20140926000000000000100                                                                    201409192014095
F0000000000000000000003819    000294033017  20140918000000000000100                                                                    201409102014096
F0000000000000000000009682    000185379019  20140918000000000000100                                                                    201409052014096
F0000000000000000000010487    000196642013  20140919000000000000100                                                                    201408082014086
F0000000000000000000001293    000288357013  20140918000000000000100                                                                    201409122014096
F0000000000000000000007428    000851587993  20140918000000000001000                                                                    201409092014096
F0000000000000000000001761    000347162019  20141006000000000000100                                                                    201409192014095
F0000000000000000000006224    000851589945  20141007000000000000100                                                                    201409192014095
F0000000000000000000001544    000347181013  20140926000000000000100                                                                    201409192014095
F0000000000000000000001745    000347207012  20140926000000000000100                                                                    201409192014095
F0000000000000000000001786    000347209015  20140926000000000000200                                                                    201409192014095
F0000000000000000000001933    000347232017  20140930000000000000500                                                                    201409192014095
F0000000000000000000001805    000347239011  20140926000000000000100                                                                    201409192014095
F0000000000000000000001551    000347241016  20141010000000000000100                                                                    201409192014095
F0000000000000000000001915    000347300012  20140926000000000000100                                                                    201409192014095
F0000000000000000000001556    000347336017  20140926000000000000100                                                                    201409192014095
F0000000000000000000001804    000347339016  20140926000000000000100                                                                    201409192014095
F0000000000000000000013438    000656421010  20140926000000000000100                                                                    201409192014095
F0000000000000000000004107    000183309013  20140916000000000000100                                                                    201409092014096
F0000000000000000000015447    000851636072  20141001000000000000200                                                                    201409192014095
F0000000000000000000004006    000183347012  20140916000000000000300                                                                    201409092014096
F0000000000000000000000047    000281528017  20140926000000000000200                                                                    201409192014095
F0000000000000000000000062    000281545019  20140926000000000000200                                                                    201409192014095
F0000000000000000000003897    000183548018  20140918000000000000100                                                                    201409082014096
F0000000000000000000001599    000347670014  20140918000000000000200                                                                    201409152014096
F0000000000000000000004020    000183642014  20140916000000000000100                                                                    201409092014096
F0000000000000000000013639    000021301019  20140918000000000000200                                                                    201409152014096
F0000000000000000000009072    000021573019  20140917000000000000200                                                                    201409082014096
F0000000000000000000008342    000022158015  20140918000000000000200                                                                    201409122014096
F0000000000000000000004054    000183775014  20140916000000000000100                                                                    201409092014096
F0000000000000000000004070    000183822012  20140916000000000000200                                                                    201409092014096
F0000000000000000000003748    000851747427  20140926000000000000100                                                                    201409192014095
F0000000000000000000009606    000236915018  20141001000000000000100                                                                    201409192014095
F0000000000000000000014578    000852723823  20140926000000000000200                                                                    201409192014095
F0000000000000000000011042    000706504010  20141001000000000000100                                                                    201409192014095
F0000000000000000000002125    000358442013  20141001000000000000500                                                                    201409192014095
F0000000000000000000002288    000358453015  20140926000000000000200                                                                    201409192014095
F0000000000000000000002570    000358457010  20140926000000000000200                                                                    201409192014095
F0000000000000000000010394    000190562018  20140918000000000000100                                                                    201409082014096
F0000000000000000000008032    000852851465  20141006000000000000100                                                                    201409192014095
F0000000000000000000011059    000709209019  20141001000000000000100                                                                    201409192014095
F0000000000000000000004049    000709586017  20140916000000000000100                                                                    201409092014096
F0000000000000000000013719    000037262013  20140918000000000000100                                                                    201409082014096
F0000000000000000000008352    000109229016  20140918000000000000100                                                                    201409112014096
F0000000000000000000006608    000037414018  20140917000000000000200                                                                    201409082014096
F0000000000000000000013858    000037566012  20140918000000000001000                                                                    201409092014096
F0000000000000000000000879    000197637013  20140918000000000000200                                                                    201409102014096
F0000000000000000000009031    000112772014  20140918000000000000100                                                                    201409112014096
F0000000000000000000000986    000306135015  20140919000000000000200                                                                    201409092014096
F0000000000000000000009038    000112978011  20140918000000000000100                                                                    201409112014096
F0000000000000000000000948    000197891017  20140918000000000000200                                                                    201409112014096
F0000000000000000000010622    000306847015  20140919000000000000200                                                                    201409122014096
F0000000000000000000013883    000118240014  20140930000000000000500                                                                    201409192014095
F0000000000000000000016258    000042066010  20140918000000000000200                                                                    201409152014096
F0000000000000000000010515    000198798010  20140918000000000000100                                                                    201409122014096
F0000000000000000000014739    000236588017  20141001000000000000500                                                                    201409192014095
F0000000000000000000014815    000236654010  20141001000000000000200                                                                    201409192014095
F0000000000000000000009641    000236782018  20141001000000000000100                                                                    201409192014095
F0000000000000000000009651    000236788016  20141001000000000000100                                                                    201409192014095
F0000000000000000000009663    000236791017  20141001000000000000100                                                                    201409192014095
F0000000000000000000001909    000852721618  20140918000000000000100                                                                    201409182014096
F0000000000000000000013333    000451709011  20141001000000000000100                                                                    201409192014095
F0000000000000000000013496    000497448018  20140926000000000000100                                                                    201409192014095
F0000000000000000000013493    000497449014  20140926000000000000100                                                                    201409192014095
F0000000000000000000008045    000061119019  20140918000000000000200                                                                    201409152014096
F0000000000000000000011015    000850117888  20141001000000000000100                                                                    201409192014095
F0000000000000000000011688    000850119945  20140918000000000000100                                                                    201409112014096
F0000000000000000000010138    000222013011  20140918000000000000200                                                                    201409122014096
F0000000000000000000007862    000143185010  20140918000000000000100                                                                    201409112014096
F0000000000000000000009920    000222082013  20140918000000000000100                                                                    201409122014096
F0000000000000000000014066    000316697011  20141001000000000000100                                                                    201409192014095
F0000000000000000000013943    000316704018  20141001000000000000100                                                                    201409192014095
F0000000000000000000014521    000316706010  20141001000000000000100                                                                    201409192014095
F0000000000000000000014049    000316707017  20141001000000000000100                                                                    201409192014095
F0000000000000000000014515    000316709010  20141001000000000000100                                                                    201409192014095
F0000000000000000000013403    000553377013  20141015000000000000100                                                                    201409192014095
F0000000000000000000013975    000316710018  20141001000000000000100                                                                    201409192014095
F0000000000000000000014535    000316713017  20141001000000000000100                                                                    201409192014095
F0000000000000000000013508    000092987019  20140918000000000000100                                                                    201409102014096
F0000000000000000000015506    000297058010  20140918000000000000100                                                                    201409162014096
F0000000000000000000005060    000186808010  20140918000000000000100                                                                    201409152014096
F0000000000000000000005081    000186908015  20140918000000000000100                                                                    201409152014096
F0000000000000000000005068    000187163013  20140918000000000000200                                                                    201409152014096
F0000000000000000000015415    000299738019  20140926000000000000300                                                                    201409192014095
F0000000000000000000006982    000097953015  20140918000000000000200                                                                    201409162014096
F0000000000000000000015430    000697880011  20140926000000000000100                                                                    201409192014095
F0000000000000000000013337    000698398019  20141001000000000000100                                                                    201409192014095
F0000000000000000000015050    000699164011  20141001000000000000100                                                                    201409192014095
F0000000000000000000008823    000079626015  20140930000000000000100                                                                    201409192014095
F0000000000000000000007165    000079700010  20140930000000000000200                                                                    201409192014095
F0000000000000000000016403    000850739374  20140926000000000000200                                                                    201409192014095
F0000000000000000000009636    000236878015  20141001000000000000100                                                                    201409192014095
F0000000000000000000011792    000079794015  20141006000000000000100                                                                    201409192014095
F0000000000000000000010158    000236879011  20141001000000000000100                                                                    201409192014095
F0000000000000000000009639    000236881016  20141001000000000000100                                                                    201409192014095
F0000000000000000000009633    000236884015  20141001000000000000100                                                                    201409192014095
F0000000000000000000009647    000236894010  20141001000000000000100                                                                    201409192014095
F0000000000000000000009658    000236897010  20141001000000000000100                                                                    201409192014095
F0000000000000000000013448    000602513017  20140926000000000000200                                                                    201409192014095
F0000000000000000000009649    000236902013  20141001000000000000100                                                                    201409192014095
F0000000000000000000012441    000164160017  20140926000000000000200                                                                    201409192014095
F0000000000000000000014127    000850757593  20140930000000000000100                                                                    201409192014095
F0000000000000000000009752    000236904016  20141001000000000000100                                                                    201409192014095
F0000000000000000000012357    000164187012  20140930000000000000100                                                                    201409192014095
F0000000000000000000013178    000850768340  20141001000000000000100                                                                    201409192014095
F0000000000000000000009609    000236909018  20141001000000000000100                                                                    201409192014095
F0000000000000000000011112    000850771162  20141001000000000000100                                                                    201409192014095
F0000000000000000000009610    000236911012  20141001000000000000100                                                                    201409192014095
F0000000000000000000012415    000164249018  20140926000000000000200                                                                    201409192014095
F0000000000000000000009700    000236913015  20141001000000000000100                                                                    201409192014095
F0000000000000000000012399    000164340015  20141021000000000000300                                                                    201409192014095
F0000000000000000000008160    000850778710  20140930000000000000100                                                                    201409192014095
F0000000000000000000009608    000236914011  20141001000000000000100                                                                    201409192014095
F0000000000000000000005028    000850784981  20141001000000000000500                                                                    201409192014095
F0000000000000000000012417    000164393011  20140926000000000000200                                                                    201409192014095
F0000000000000000000009656    000236874010  20141001000000000000100                                                                    201409192014095
F0000000000000000000009650    000236794016  20141001000000000000100                                                                    201409192014095
F0000000000000000000009417    000236796019  20141001000000000000100                                                                    201409192014095
F0000000000000000000009584    000236809013  20141001000000000000200                                                                    201409192014095
F0000000000000000000009588    000236811018  20141001000000000000200                                                                    201409192014095
F0000000000000000000009586    000236812014  20141001000000000000200                                                                    201409192014095
F0000000000000000000009666    000236813010  20141001000000000000100                                                                    201409192014095
F0000000000000000000009659    000236814017  20141001000000000000100                                                                    201409192014095
F0000000000000000000009603    000236818012  20141001000000000000100                                                                    201409192014095
F0000000000000000000009585    000236819019  20141001000000000000200                                                                    201409192014095
F0000000000000000000003581    000326840017  20141001000000000000200                                                                    201409192014095
F0000000000000000000015182    000326847011  20140926000000000000300                                                                    201409192014095
F0000000000000000000009582    000236821013  20141001000000000000200                                                                    201409192014095
F0000000000000000000003575    000326857017  20140926000000000000500                                                                    201409192014095
F0000000000000000000016247    000326917010  20140926000000000000500                                                                    201409192014095
F0000000000000000000009604    000236825019  20141001000000000000100                                                                    201409192014095
F0000000000000000000009462    000236836010  20141001000000000000100                                                                    201409192014095
F0000000000000000000009648    000236839010  20141001000000000000100                                                                    201409192014095
F0000000000000000000009446    000236842010  20141001000000000000100                                                                    201409192014095
F0000000000000000000009653    000236844013  20141001000000000000100                                                                    201409192014095
F0000000000000000000004456    000599836012  20141113000000000000200                                                                    201409192014095
F0000000000000000000009628    000236846016  20141001000000000000100                                                                    201409192014095
F0000000000000000000009613    000236847012  20141001000000000000100                                                                    201409192014095
F0000000000000000000009616    000236850013  20141001000000000000100                                                                    201409192014095
F0000000000000000000009654    000236868010  20141001000000000000100                                                                    201409192014095
F0000000000000000000009422    000236869016  20141001000000000000200                                                                    201409192014095
